:020000040800F2
:10000000082800207D0901089D0B01089F0B0108AD
:10001000A30B0108A70B0108AB0B010800000000AF
:10002000000000000000000000000000AF0B01080D
:10003000B10B010800000000B30B0108B50B01086B
:100040009709010897090108970901083BDD000895
:1000500097090108970901089709010897090108FC
:1000600097090108970901089709010897090108EC
:1000700097090108970901089709010897090108DC
:1000800097090108970901089709010897090108CC
:1000900097090108970901089709010897090108BC
:1000A00097090108970901089709010897090108AC
:1000B00097090108C9C600089709010897090108AE
:1000C000970901089709010897090108970901088C
:1000D000970901088DCC00089709010897090108C4
:1000E00097090108970901089709010800F002F82B
:1000F00000F05EF80AA090E8000C82448344AAF164
:100100000107DA4501D100F053F8AFF2090EBAE861
:100110000F0013F0010F18BFFB1A43F0010318473B
:100120005C4701007C47010010F8013B0A4413F0D2
:10013000030408BF10F8014B1D1108BF10F8015B44
:10014000641E05D010F8016B641E01F8016BF9D133
:10015000002D15D010F8014B03F00C030C2BA1EB74
:1001600004040ABF10F8013BA4EB8314A4EB03249E
:1001700005F1010314F8016B5B1E01F8016BF9D561
:10018000914238BF10F8013BD1D3704700230024BF
:1001900000250026103A28BF78C1FBD8520728BF97
:1001A00030C148BF0B6070471FB51FBD10B510BDF3
:1001B00010F078FD1146FFF7F7FF0CF0A6F910F0EC
:1001C00096FD03B4FFF7F2FF03BC10F09DFD0000A5
:1001D000002000BF04E02021FD4A1154411CC8B298
:1001E0007928F8DB704730B5C0EB001301EB43030F
:1001F000F84C23800AE012F8013BF54CF54D2D88B0
:100200006355F44B1B885B1CF24C23801378002B46
:10021000F1D130BDF04800780C2816D10520EF4907
:100220000870EF4908700020EE498870C870EE49E8
:10023000C8700120ED4908700020ED4908700120C8
:10024000EC490870EC49087042E0E34800780B285C
:1002500035D10020E1490870E1490870E149887012
:10026000C870E149C8700120E0490870E149087090
:10027000E1490870E148007828B10120E0490870A0
:100280000020DE490870DF48007840B10020DE49D8
:100290000870DE490870DE490870DA490870DD48E8
:1002A000007820F00200DB490870DB48007820F07D
:1002B0004000D94908700020D849087008E0C648B5
:1002C000007828B10120CB4908700320CA49087082
:1002D0000020C14908707047BF4800780C2805D13C
:1002E0000020BE490870BE49087008E0BA4800788E
:1002F0000E2804D0B8480078032800D000BF70470B
:10030000B54800780C2805D10020B4490870B449DC
:10031000087008E0B04800780E2804D0AE48007895
:10032000032800D000BF7047AB48007880B10020A0
:10033000AA490870AA490870AA498870C870AA49D1
:10034000C8700120A9490870AA490870AA49087014
:100350000020A1490870704770B5B14DB14E9E485C
:100360000078102803D09C4800780B2846D19A4882
:100370000078102829D1ACA2032101200EF03AF810
:10038000B1A2032102200EF035F8A54DA54E0024A0
:1003900003E0305D2855601CC4B2C82CF9DB002492
:1003A0000DE0295DB04A1278521E4FF4807303EBC2
:1003B0000222224490B20DF039FA601CC4B2C82C5B
:1003C000EFDB41F270700DF011FB002083490870E3
:1003D0008349087083498870C87001208349087078
:1003E00084490870844908700020A0490870A04919
:1003F0000870A0490870A049087008E076480078A5
:1004000028B101207B49087003207B490870002037
:100410007149087070BD83486F4909780C291ED155
:1004200000216E4A11706E4A11706E4A9170D1703F
:1004300001216D4AD1706F4A11706F4A117000210D
:100440008A4A11708A4A11708A4A11708A4A117058
:100450008A49097821F00801884A11703EE25E4914
:1004600009780E2970D18449097831B101291BD04E
:10047000022941D0032968D168E07E490978491CE6
:10048000C9B27C4A1170117011460978182902DD31
:100490000021117004E00121564A1170564A117072
:1004A0000021734A11702EE172490978042202EB8F
:1004B000C101415C491CCAB26E490978042303EBAF
:1004C000C10142546B49097800EBC10109796329E4
:1004D0000CDD63226749097803EBC1014254012115
:1004E000444A11700321444A117004E00121414A39
:1004F0001170414A117006E15E490978052202EB4C
:10050000C101415C491CCAB25A490978052303EB71
:10051000C10142545749097800EBC10149793B298F
:100520000CDD3B225349097803EBC1014254012100
:10053000304A11700321304A117004E001212D4A24
:1005400011702D4A1170DEE0DEE09BE04949097828
:10055000062202EBC101425C494991F85B108A42D4
:100560000EDA474991F8592042490978062303EBEE
:10057000C101425401211F4A11701F4A117025E028
:100580003C490978062202EBC101415C491CCAB210
:1005900038490978062303EBC101425435490978EB
:1005A00000EBC1018A79364991F85A108A420DDD73
:1005B000334991F85A202F49097803EBC10142547D
:1005C00001210C4A117003210B4A11709BE00000BD
:1005D000282100208C13002098140020851300206F
:1005E0008613002087130020E01900207C130020D0
:1005F0004B0000204A00002049000020E2140020A7
:100600009E130020FC130020011400200014002081
:10061000FF1300205F0000205E000020FE1300207A
:10062000441800200C1900202020202020CAFDBEE4
:10063000DDD5FDD4DAB1A3B4E62C20202020202083
:1006400020202020202000002020202020202020EA
:10065000202020C7EBC9D4BAF22E2E2E2020202035
:1006600020202020202000009D1300207E13002049
:100670007F1300204D000020530000205700002071
:10068000EB190020FB490978022202EBC101425C10
:10069000F94991F872108A420EDAF74991F87220FE
:1006A000F4490978022303EBC10142540121F34AC2
:1006B0001170F34A117025E0EE490978022202EB2D
:1006C000C101415C491CCAB2EA490978022303EB23
:1006D000C1014254E749097800EBC1018978E64A33
:1006E00092F8702091420DDDE34991F87020E149C4
:1006F000097803EBC10142540121E04A1170032142
:10070000DF4A117000BFA9E6DE49097803296FD1DD
:10071000DD49097831B101291CD0022948D00329CB
:1007200067D175E0D349097800290CDDD1490978F2
:10073000491EC9B2CF4A117011700121CF4A117000
:10074000CF4A117002E01821CA4A11700021CF4A25
:100750001170C3E0C749097800EBC101097900298C
:1007600018DDC4490978042202EBC101415C491E2D
:10077000CAB2C0490978042303EBC1014254BD4900
:10078000097803EBC10142540121BC4A1170BC4AF3
:1007900011700CE00022B7490978042303EBC10172
:1007A00042540121B54A11700321B54A117095E0F8
:1007B000B049097800EBC101497900291ADDAD493A
:1007C0000978052202EBC101415C491ECAB2A94960
:1007D0000978052303EBC1014254A649097803EBCC
:1007E000C10142540121A54A1170A54A11700EE0C1
:1007F00075E040E000229F490978052303EBC10121
:10080000425401219D4A117003219D4A117065E0F7
:100810009849097800EBC1018A79974991F85B10F2
:100820008A4218DD93490978062202EBC101415C36
:10083000491ECAB28F490978062303EBC10142540D
:100840008C49097803EBC101425401218B4A117094
:100850008B4A11700EE0884991F859208549097832
:10086000062303EBC10142540121844A1170032184
:10087000834A117032E07F49097800EBC1018A7820
:100880007D4991F872108A4218DD7A49097802226E
:1008900002EBC101415C491ECAB2764909780223C4
:1008A00003EBC10142547349097803EBC10142547F
:1008B0000121724A1170724A11700EE06E4991F86E
:1008C00072206C490978022303EBC10142540121D3
:1008D0006A4A117003216A4A117000BF37E36949FF
:1008E0000978072913D10621694A1170694A1170E4
:1008F0000121694A91700021D170684AD1700121AB
:10090000674A11705D4A11705D4A11701FE35D49BD
:1009100009780F2915D101215F4A51705A49097888
:10092000491CC9B2584A117011701146097805293D
:1009300001DB002111700121504A1170504A1170E1
:1009400005E3504909780A2959D156490978C90956
:10095000A9BB54490978C1F3400191B952490978BA
:10096000C1F3C00169B94F49097821F00201891C1E
:100970004C4A117058223F49097800EBC101CA70F6
:1009800030E048490978C1F34001C9B146490978C6
:10099000C1F3C001A1B94349097821F00201414ADC
:1009A00011704149097821F0080108313E4A11705F
:1009B0004A223049097800EBC101CA7012E017E001
:1009C0003849097821F00201364A11703649097810
:1009D00021F00801344A117000222649097800EB01
:1009E000C101CA700121254A1170254A1170AEE279
:1009F0000121224A11700321214A1170A7E22149E5
:100A00000978042959D127490978C90989BB254999
:100A10000978C1F3801161BB224909788908C9436B
:100A2000204A127861F382021E490A700978C1F3E4
:100A3000800161B10F49097800EBC101497841F0AB
:100A400001020C49097800EBC1014A700BE0094929
:100A5000097800EBC101497801F00E0205490978D7
:100A600000EBC1014A700121044A1170044A11705F
:100A70006DE21BE04D000020EB1900204A00002031
:100A80004900002098140020530000207F1300200C
:100A9000851300208613002087130020E019002012
:100AA0007C13002059000020570000200121FE4A3D
:100AB00011700321FD4A117049E2FD4909780829A6
:100AC0003DD1FC490978C90989BBFA490978C1F3C4
:100AD000801161BBF7490978C908C943F54A127802
:100AE00061F3C302F3490A700978C1F3C00161B12F
:100AF000F149097800EBC101497841F00202EE4961
:100B0000097800EBC1014A700BE0EB49097800EB72
:100B1000C101497801F00D02E749097800EBC101F4
:100B20004A700121E04A1170E04A11700FE2FFE7BC
:100B30000121DD4A11700321DC4A117007E2DC4912
:100B400009780D293DD1DB490978C90989BBD94903
:100B50000978C1F3801161BBD64909780909C943F5
:100B6000D44A127861F30412D2490A700978C1F3A9
:100B7000001161B1D049097800EBC101497841F019
:100B80000402CD49097800EBC1014A700BE0CA4963
:100B9000097800EBC101497801F00B02C6490978D8
:100BA00000EBC1014A700121BF4A1170BF4A1170A8
:100BB000CDE1FFE70121BC4A11700321BB4A11704E
:100BC000C5E1BB490978012952D1BA490978C90957
:100BD00081BBB8490978C1F3801159BBB74909787D
:100BE00051B90121B54A1170B249097821F02001AB
:100BF0002031B04A117027E0B049097801290AD1A3
:100C00000221AE4A1170AB49097821F02001203150
:100C1000A84A117018E0A949097802290BD10321CB
:100C2000A64A1170A349097821F020012031A14A78
:100C3000117009E015E00021A04A11709D49097862
:100C400021F020019B4A11709C490A789A49097841
:100C500000EBC101CA710121934A1170934A1170CE
:100C600075E10121904A11700321904A11706EE1E3
:100C70008F490978052969D18E490978C909E9BBE5
:100C80008C4909788909C9438A4A127861F3861226
:100C900088490A700978C1F3801161B186490978E1
:100CA00000EBC101497841F008028349097800EB63
:100CB000C1014A700BE08049097800EBC101497815
:100CC00001F007027C49097800EBC1014A707949BB
:100CD0000978C1F3801161B37649097821F00401E4
:100CE000744A11701146097821F0080111701146FB
:100CF000097821F010011170002100E01FE06F4A17
:100D000011706C49097821F020016A4A11700022A3
:100D10006949097800EBC101CA716749097800EB9C
:100D2000C101497801F008026349097800EBC1016B
:100D30004A7001215C4A11705C4A117007E101217F
:100D4000594A11700321594A117000E15849097834
:100D500009297DD15A490978E9BB0121584A117006
:100D60005449097821F080018031524A11701146AE
:100D7000097821F0020111705249097821F0080127
:100D8000504A11704B49097821F00401494A117009
:100D90001146097821F0080111701146097821F0F7
:100DA000100111700021454A11704249097821F063
:100DB0002001404A117000223F49097800EBC1012F
:100DC000CA713C49097821F040013A4A11705A220F
:100DD0003949097800E009E000EBC101CA7000223E
:100DE0003549097800EBC1014A70A1E0344909781E
:100DF000012948D10221324A11702E49097821F087
:100E0000800180312B4A11701146097821F00201CE
:100E100011702C49097821F008012A4A11702549DE
:100E2000097821F00401234A11701146097821F054
:100E3000080111701146097821F01001117000218C
:100E40001E4A11701B49097821F02001194A00E05F
:100E500074E0117000221849097800EBC101CA71D1
:100E60001449097821F04001124A117047221249B1
:100E7000097800EBC101CA7000220F49097800EB24
:100E8000C1014A7054E000210D4A117009490978E6
:100E900021F08001074A11701146097821F0020102
:100EA0001170084909780FE04A000020490000202D
:100EB00098140020590000204D0000201A00002046
:100EC0001B0000205700002021F00801FE4A11708D
:100ED000FE49097821F00401FC4A11701146097895
:100EE00021F0080111701146097821F010011170EC
:100EF0000021F74A1170F549097821F02001F34AE1
:100F000011700022F349097800EBC101CA71EF4961
:100F1000097821F04001ED4A11700022ED4909786D
:100F200000EBC101CA70EB49097800EBC1014A70BE
:100F30000121E94A1170E94A117008E0E84909788D
:100F400029B10121E44A11700321E44A117070476C
:100F5000E4490878E24909780C2926D1E249097860
:100F6000C1F3401129B90021E04A1170E04A117023
:100F700009E0DD490978C1F3401121B10A21DB4ABA
:100F80001170DB4A11700021DA4A9170D170012191
:100F9000D94AD1700021D94A1170D94A1170012162
:100FA000CD4A1170CD4A117033E0CD4909780E2930
:100FB00019D148B1CF49C978491ECE4AD170012113
:100FC000C54A1170C54A1170CA49CA78411E8A4281
:100FD00002DCC849C97811B90021C64AD170002184
:100FE000BF4A117015E0BE490978032911D180B1BB
:100FF000C049C978491CBF4AD1700121B64A117055
:10100000B64A1170BB49CA78411E8A4201DDB94A0D
:10101000D1700021B24A11707047B14800780C2895
:1010200010D10320B1490870B14908700120B149BD
:10103000887008460079C8700120A7490870A74940
:10104000087008E0A648007828B10120A24908707D
:101050000320A24908700020A1490870704770B5AC
:101060009F4800780C2817D1A248407818B100207A
:10107000A04948700AE003209C4908709C49087008
:1010800001209C49887008460079C8700120924967
:10109000087092490870D0E0914800780E2840D13D
:1010A0009448407830B39348C07802281BDC9148BC
:1010B000C1789448405C63280ADA8E48C178914828
:1010C000405C401CC0B28B49CA788E49885400E00D
:1010D00063208849CA788B49885401207E4908706A
:1010E0007E490870A9E001207B49087003207B49F4
:1010F0000870A2E07F48C078401E7E49C87008464C
:10110000C0787E490978884202DC7A48C07810B9F4
:1011100000207849C87001206F4908706F49087035
:101120008BE06F480078032845D17248407868B357
:101130007048C07838B16F48C078012803D06D4836
:10114000C07802281BD16B48C1786E48405C0028EB
:101150000ADD6848C1786B48405C401EC0B26549F2
:10116000CA786849885400E000206249CA78654915
:101170008854012058490870584908705DE00120E2
:101180005549087003205549087056E05948C07801
:10119000401C5849C8700846C078584909788842A8
:1011A00003DD564800785349C87001204A49087049
:1011B0004A49087041E04A480078072834D14D4830
:1011C000007870B14B48407858B94A48C078022836
:1011D00007DC0120474948703F4908703F490870C3
:1011E0002BE044480078C0B142484078A8B1454D52
:1011F000002040494870002407E015F8011B04F165
:1012000070000CF013FB601CC4B2032CF5DB012052
:1012100031490870314908700FE001202E490870EB
:1012200003202E49087008E02D48007828B10120DD
:1012300029490870032029490870002028490870AE
:1012400070BD70B5264800780C2817D12948407821
:1012500018B10020274948700AE00320234908708C
:101260002349087001202349887008460079C87016
:101270000120194908701949087002E218480078DD
:101280000E286ED11B48407800286BD01948C078D2
:1012900038B11848C078012803D01648C078022811
:1012A0003FD11448C17817480838405C0F282DDA20
:1012B0001048C17813480838405C401CC0B20D4942
:1012C000CA78104908391FE0570000205900002053
:1012D0001A0000204D0000204A0000204900002094
:1012E000981400208E1300205B000020851300203E
:1012F0008613002087130020E019002080130020AF
:10130000831300205B1A0020885400E00F20F94965
:10131000CA78F94988540120F8490870F8490870DA
:10132000AFE1F448C07803281DD1F248C178F248F3
:10133000405C14280ADAEF48C178EF48405C401C52
:10134000C0B2EC49CA78EC49885400E01420E9495D
:10135000CA78E94988540120E8490870E8490870CA
:101360008FE17EE066E0E348C07804281BD1E148C5
:10137000C178E148405C5A280ADADE48C178DE4884
:10138000405C401CC0B2DB49CA78DB49885400E0AD
:101390005A20D849CA78D84988540120D7490870BA
:1013A000D74908706DE1D348C07805281BD1D148D2
:1013B000C178D148405C96280ADACE48C178CE4838
:1013C000405C401CC0B2CB49CA78CB49885400E08D
:1013D0009620C849CA78C84988540120C74908706E
:1013E000C74908704DE1C348C07806281BD1C148E1
:1013F000C178C148405C08280ADABE48C178BE48B6
:10140000405C401CC0B2BB49CA78BB49885400E06C
:101410000820B849CA78B84988540120B7490870EB
:10142000B74908702DE10120B44908700320B44980
:10143000087026E1AF48C078401EAE49C870084623
:10144000C078B0490978884202DCAA48C07810B94F
:101450000020A849C8700120A8490870A849087050
:101460000FE1A948007803287ED1A24840780028DF
:101470007BD0A048C07838B19E48C078012803D0FE
:101480009C48C07802281BD19A48C1789A48405C91
:101490000A280ADD9748C1789748405C401EC0B2D0
:1014A0009449CA789449885400E00A209149CA783E
:1014B0009149885401209149087091490870E0E0F1
:1014C0008C48C07803281BD18A48C1788A48405C80
:1014D0000F280ADD8748C1788748405C401EC0B2AB
:1014E0008449CA788449885400E00F208149CA7829
:1014F0008149885401208149087081490870C0E001
:101500007C48C07804281BD17A48C1787A48405C6E
:101510001E280ADD7748C1787748405C401EC0B27B
:101520007449CA787449885400E01E207149CA7809
:101530007149885401207149087071490870A0E010
:101540006C48C07805281ED16A48C1786A48405C5A
:101550005A280DDD6748C1786748405C401EC0B21C
:101560006449CA78644901E049E033E0885400E006
:101570005A206049CA786049885401205F49087040
:101580005F4908707DE05B48C07806281BD1594848
:10159000C1785948405C04280ADD5648C17856484D
:1015A000405C401EC0B25349CA785349885400E099
:1015B00004205049CA785049885401204F49087086
:1015C0004F4908705DE001204C49087003204C49E8
:1015D000087056E04748C078401C4649C870084625
:1015E000C07848490978884203DD46480078414977
:1015F000C8700120414908704149087041E04248E3
:101600000078072834D13B48007870B139484078D9
:1016100058B93848C078062807DC01203549487099
:1016200036490870364908702BE032480078C0B15E
:1016300030484078A8B1304D00202E494870002431
:1016400007E015F8011B04F168000CF0EFF8601CCE
:10165000C4B2082CF5DB012028490870284908701D
:101660000FE001202549087003202549087008E093
:101670002548007828B1012020490870032020491E
:10168000087000202049087070BD70B51E480078B1
:101690000C2810D103201D4908701D490870012035
:1016A0001449887008460079C870012013490870F1
:1016B000134908704CE1144800780E2873D10D4886
:1016C0004078002870D00B48C07870BB0948C178BA
:1016D00009480838405C03281CDA0648C1780648E7
:1016E0000838405C401CC0B20249CA780249083937
:1016F000885410E087130020531A00204A0000206D
:101700004900002080130020981400208513002039
:10171000861300200320FA49CA78FA498854012028
:10172000F9490870F949087012E1FFE7F448C078F8
:10173000012803D0F248C07802281BD1F048C178B4
:10174000F048405CF0280ADAED48C178ED48405C8A
:10175000401CC0B2EA49CA78EA49885400E0F02047
:10176000E749CA78E74988540120E7490870E74902
:101770000870EDE0E248C078032803D0E048C07864
:1017800004281DD1DE48C178DE48405C96280CDA7A
:10179000DB48C178DB48405C401CC0B2D849CA78FD
:1017A000D849885402E029E011E09620D449CA784B
:1017B000D44988540120D4490870D4490870C7E03E
:1017C0000120D14908700320D0490870C0E0CC48FE
:1017D000C078401ECA49C8700846C078CC4909780C
:1017E000884202DCC648C07810B90020C449C870DD
:1017F0000120C5490870C5490870A9E0C5480078AE
:10180000032863D1BE48407800284AD0BC48C0783D
:1018100002281BDCBA48C178BA48405C01280ADDBE
:10182000B748C178B748405C401EC0B2B449CA78D6
:10183000B449885400E00120B149CA78B1498854BC
:101840000120B1490870B149087081E0AC48C07806
:10185000032803D0AA48C07804281BD1A848C1781F
:10186000A848405C5A280ADDA548C178A548405CD4
:10187000401EC0B2A249CA78A249885400E05A204A
:101880009F49CA789F49885401209F4908709F4901
:1018900008705DE001209C49087003209B49087096
:1018A00056E09748C078401C9549C8700846C078F3
:1018B00097490978884203DD954800789049C870B7
:1018C0000120914908709149087041E091480078E1
:1018D000072834D18A48007870B18948407858B9CF
:1018E0008748C078042807DC01208549487086496C
:1018F0000870864908702BE081480078C0B18048A4
:101900004078A8B17F4D00207D494870002407E051
:1019100015F8011B04F160000BF088FF601CC4B2D5
:10192000082CF5DB012078490870784908700FE031
:1019300001207549087003207449087008E0754853
:10194000007828B101207049087003206F490870A1
:1019500000207049087070BD70B56E4800780C2882
:1019600017D16748407818B10020654948700AE0EF
:10197000032069490870694908700120604988702E
:1019800008460079C87001205F4908705F490870F7
:10199000B2E0604800780E2834D159484078D0B180
:1019A0005748C17857480838405C63280CDA5448D7
:1019B000C17854480838405C401CC0B25049CA78CD
:1019C00050490839885400E063204D49CA784D4990
:1019D0000839885410E04A48C078401E4849C87009
:1019E0000846C0784A490978884202DC4448C078F1
:1019F00010B900204249C87001204349087043498A
:101A0000087079E043480078032832D13C48407898
:101A1000D0B13B48C1783B480838405C00280CDD19
:101A20003748C17837480838405C401EC0B2344956
:101A3000CA7834490839885400E000203049CA780F
:101A40003049083988540EE02D48C078401C2C4994
:101A5000C8700846C0782E490978884203DD2C48B2
:101A600000782749C8700120274908702749087065
:101A700042E028480078072835D12148007870B125
:101A80001F48407858B91E48C078032807DC012059
:101A90001B4948701C4908701C4908702CE0184804
:101AA0000078C8B116484078B0B1164D083D002006
:101AB00013494870002407E015F8011B04F1580091
:101AC0000BF0B4FE601CC4B2042CF5DB01200E49FF
:101AD00008700E4908700FE001200B4908700320C0
:101AE0000A49087008E00B48007828B1012006492F
:101AF000087003200549087000200649087070BD71
:101B0000871300204B1A00204A00002049000020C3
:101B100080130020981400208513002086130020D5
:101B200070B5F64800780C2817D1F548407818B100
:101B30000020F34948700AE00320F2490870F24996
:101B400008700120EE49887008460079C8700120AD
:101B5000EE490870EE490870E5E0E84800780E2884
:101B60006CD1E7484078002851D0E548C07838B1BA
:101B7000E348C078022803D0E148C07804281BD18C
:101B8000DF48C178E348405C63280ADADC48C17862
:101B9000E048405C401CC0B2D949CA78DD4988544D
:101BA00000E06320D649CA78DA4988540120D74931
:101BB0000870D7490870B6E0D148C078012803D032
:101BC000CF48C07803281BD1CD48C178D148405CAC
:101BD00078280ADACA48C178CE48405C401CC0B2B6
:101BE000C749CA78CB49885400E07820C449CA78EC
:101BF000C84988540120C5490870C549087092E059
:101C00000120C24908700320C14908708BE0BC481C
:101C1000C078401EBA49C8700846C078BE490978E5
:101C2000884202DCB648C07810B90020B449C870B8
:101C30000120B6490870B649087074E0AF480078D2
:101C400003282ED1AE484078B0B1AD48C178B14834
:101C5000405C01280ADDAA48C178AE48405C401EBD
:101C6000C0B2A749CA78AB49885400E00120A44912
:101C7000CA78A84988540EE0A148C078401CA04901
:101C8000C8700846C078A4490978884203DDA24894
:101C900000789B49C87001209C4908709C490870D5
:101CA00041E096480078072834D19548007870B113
:101CB0009348407858B99248C078042807DC01203E
:101CC0008F49487091490870914908702BE08C4801
:101CD0000078C0B18A484078A8B18E4D002088496C
:101CE0004870002407E015F8011B04F150000BF0C8
:101CF0009DFD601CC4B2052CF5DB012083490870F2
:101D0000834908700FE00120804908700320804952
:101D1000087008E07948007828B101207B490870F4
:101D200003207B49087000207449087070BD70B5AD
:101D3000724800780C2817D17148407818B10020FB
:101D40006F4948700AE003206E4908706E490870B8
:101D500001206B49887008460079C87001206B49E2
:101D600008706B49087030E1644800780E2872D121
:101D700063484078002877D06148C078022803D0B3
:101D80005F48C07803281FD15D48C1786148083892
:101D9000405C78280CDA5A48C1785E480838405CC4
:101DA000401CC0B25649CA785A490839885400E0E4
:101DB00078205349CA785749083988540120534933
:101DC00008705349087000E14D48C078F8B94C4894
:101DD000C17850480838405C96280CDA4848C178E9
:101DE0004C480838405C401CC0B24549CA78494953
:101DF0000839885400E096204149CA784549083995
:101E0000885401204149087041490870DDE03C4890
:101E1000C078012821D13A48C1783E480838405C52
:101E2000F0280CDA3648C1783A480838405C401C43
:101E3000C0B23349CA7837490839885400E0F020E5
:101E40002F49CA7833490839885401202F4908702E
:101E50002F490870B9E01EE006E001202B49087008
:101E600003202B490870B0E02548C078401E244963
:101E7000C8700846C07828490978884202DC2048A2
:101E8000C07810B900201E49C87001201F49087091
:101E90001F49087099E019480078032853D1184861
:101EA000407850B31648C07803281FDC1448C17826
:101EB00018480838405C01280CDD1148C1781548E5
:101EC0000838405C401EC0B20D49CA781149083933
:101ED000885400E001200A49CA780E49083988541C
:101EE00001200A4908700A4908706EE0012007497C
:101EF000087003200649087067E00FE0981400207E
:101F00008713002085130020861300204A0000203C
:101F1000490000203B1A002080130020F848C078B8
:101F2000401CF749C8700846C078F64909788842CD
:101F300003DDF4480078F249C8700120F2490870C6
:101F4000F249087041E0F2480078072834D1EC48A3
:101F5000007870B1EA48407858B9E948C078032859
:101F600007DC0120E6494870E7490870E749087036
:101F70002BE0E3480078C0B1E1484078A8B1E54DD6
:101F80000020DF494870002407E015F8011B04F128
:101F900048000BF04BFC601CC4B2082CF5DB0120A0
:101FA000D9490870D94908700FE00120D649087056
:101FB0000320D649087008E0D548007828B10120F0
:101FC000D14908700320D14908700020D049087019
:101FD00070BD70B5CE4800780C2817D1C84840783D
:101FE00018B10020C64948700AE00320CA490870A9
:101FF000CA4908700120C249887008460079C87033
:102000000120C1490870C14908709AE1C0480078B0
:102010000E2876D1BA484078002873D0B848C078E6
:1020200018B1B748C07801281FD1B548C178B94860
:102030000838405C63280CDAB148C178B5480838E4
:10204000405C401CC0B2AE49CA78B24908398854D5
:1020500000E06320AA49CA78AE49083988540120B3
:10206000A9490870A94908706BE1A548C078022801
:1020700003D0A348C07803281FD1A148C178A54840
:102080000838405C78280CDA9D48C178A1480838A7
:10209000405C401CC0B29A49CA789E4908398854AD
:1020A00000E078209649CA789A4908398854012076
:1020B000954908709549087043E19148C078042813
:1020C00021D18F48C17893480838405CF0280CDA59
:1020D0008B48C1788F480838405C401CC0B28849A2
:1020E000CA788C490839885400E0F0208449CA78BD
:1020F0008849083988540120834908708349087049
:102100001FE146E02EE07E48C078052803D07C48D9
:10211000C07806281FD17A48C1787E480838405CCC
:102120001E280CDA7648C1787A480838405C401C92
:10213000C0B27349CA7877490839885400E01E2034
:102140006F49CA7873490839885401206E4908706C
:102150006E490870F5E001206B49087003206B4957
:102160000870EEE06648C078401E6549C8700846B1
:10217000C07864490978884202DC6148C07810B9A7
:1021800000205F49C87001205F4908705F490870EE
:10219000D7E05F48007803287BD159484078002871
:1021A00061D05748C07878B15548C07801280BD025
:1021B0005348C078042807D05148C078052803D078
:1021C0004F48C07806281FD14D48C178514808387B
:1021D000405C01280CDD4A48C1784E480838405C14
:1021E000401EC0B24649CA784A490839885400E0BE
:1021F00001204349CA784749083988540120424997
:102200000870424908709CE03D48C078022803D01D
:102210003B48C07803281FD13948C1783D48083869
:10222000405C00280CDD3648C1783A480838405CEC
:10223000401EC0B23249CA7836490839885400E095
:1022400000202F49CA7833490839885401202E4983
:1022500008702E49087074E001202B490870032093
:102260002A4908706DE02648C078401C2449C8708F
:102270000846C07823490978884203DD2148007860
:102280001F49C8700120204908702049087058E093
:10229000FFE71F48007807284AD11948007890B115
:1022A0001748407878B91648C07806280BDC1448DF
:1022B000C078012807D001201149487012490870E0
:1022C000124908703DE00E48007848B30C48407849
:1022D00030B3104D083D002009494870002407E044
:1022E00015F8011B04F140000BF0A0FA601CC4B209
:1022F000082CF5DB0120044908700449087020E02F
:1023000087130020801300204A000020490000208D
:1023100098140020331A0020851300208613002013
:10232000FFE70120FE4908700320FE49087008E01D
:10233000FD48007828B10120F94908700320F949C7
:1023400008700020F849087070BD70B5F648007834
:102350000C2817D1F548407818B10020F34948708F
:102360000AE00320F2490870F24908700120EF49A1
:10237000887008460079C8700120E9490870E94969
:102380000870F4E0E84800780E2864D1E748407807
:10239000002849D0E548C078D8B9E448C178E64873
:1023A000405C63280ADAE148C178E348405C401C9D
:1023B000C0B2DE49CA78E049885400E06320DB49B6
:1023C000CA78DD4988540120D5490870D54908707C
:1023D000CDE0D648C078012803D0D448C078022880
:1023E0001BD1D248C178D448405C78280ADACF485B
:1023F000C178D148405C401CC0B2CC49CA78CE49B3
:10240000885400E07820C949CA78CB498854012013
:10241000C3490870C3490870A9E00120C049087089
:102420000320C0490870A2E0C048C078401EBF49E0
:10243000C8700846C078C1490978884202DCBB48A8
:10244000C07810B90020B949C8700120B44908709B
:10245000B44908708BE0B4480078032845D1B348EC
:10246000407868B3B148C07838B1B048C078012826
:1024700003D0AE48C07802281BD1AC48C178AE4822
:10248000405C01280ADDA948C178AB48405C401E89
:10249000C0B2A649CA78A849885400E00120A349DF
:1024A000CA78A549885401209D4908709D49087043
:1024B0005DE001209A49087003209A49087056E0AF
:1024C0009A48C078401C9949C8700846C0789B4912
:1024D0000978884203DD994800789449C870012042
:1024E0008F4908708F49087041E08F4800780728AD
:1024F00034D18E48007870B18C48407858B98B48F8
:10250000C078022807DC0120884948708449087097
:10251000844908702BE085480078C0B18348407832
:10252000A8B1854D002081494870002407E015F8C6
:10253000011B04F138000BF079F9601CC4B2032CC4
:10254000F5DB012076490870764908700FE001201C
:102550007349087003207349087008E072480078D6
:1025600028B101206E49087003206E4908700020D0
:102570006D49087070BD10B56B4800780C2817D1F4
:102580006A48407818B10020684948700AE0032082
:1025900067490870674908700120644988700846D7
:1025A0000079C87001205E4908705E490870DAE061
:1025B0005D4800780E2840D15C48407830B35B48D5
:1025C000C07801281BD15C48383890F83100F028D9
:1025D0000ADA5948383890F83100401CC0B25649E0
:1025E000383981F8310000E0F0205349383981F85A
:1025F000310001204A4908704A490870B3E00120BF
:1026000047490870032047490870ACE04748C07844
:10261000401E4649C8700846C07848490978884233
:1026200002DC4248C07810B900204049C87001203F
:102630003B4908703B49087095E03B480078032807
:102640003ED13A48407830B33848C07801281BD191
:102650003948383890F8310001280ADD36483838D2
:1026600090F83100401EC0B23349383981F831004A
:1026700000E001203049383981F831000120284933
:102680000870284908706EE0012025490870032071
:102690002449087067E02548C078401C2349C87069
:1026A0000846C07825490978884203DD2348007828
:1026B0001E49C87001201A4908701A49087052E072
:1026C00019480078072845D118480078A0B1174864
:1026D000407888B91548C078012806D11349487058
:1026E0000F4908700F4908703DE001200C4908703F
:1026F00003200C49087036E00C48007818B30B48EA
:10270000407800B30020094948700B48383890F8E9
:10271000311031200BF08AF80120014908700FE0D8
:102720004A00002049000020981400208713002050
:102730008513002086130020231A00208013002018
:10274000FE4908700FE00120FD4908700320FB4995
:10275000087008E0FB48007828B10120F8490870AB
:102760000320F64908700020F649087010BD70B5C6
:10277000F44800780C2817D1F348407818B10020AD
:10278000F14948700AE00320F0490870F0490870E8
:102790000120ED49887008460079C8700120E84999
:1027A0000870E6490870ECE0E64800780E2863D12E
:1027B000E5484078002848D0E348C078F8B1E248BE
:1027C000C07806281BDCE048C178E248405C6328FA
:1027D0000ADADD48C178DF48405C401CC0B2DA4903
:1027E000CA78DC49885400E06320D749CA78D949BF
:1027F00088540120D2490870D0490870C1E0D248FD
:10280000C078D8B9D048C178D248405C32280ADABA
:10281000CD48C178CF48405C401CC0B2CA49CA7894
:10282000CC49885400E03220C749CA78C949885445
:102830000120C3490870C1490870A2E00120C049C5
:1028400008700320BD4908709BE0BF48C078401E57
:10285000BD49C8700846C078BF490978884202DC83
:10286000B948C07810B90020B749C8700120B449F0
:102870000870B249087084E0B248007803283ED15D
:10288000B148407830B3B048C07806281BDCAE4869
:10289000C178B048405C00280ADDAB48C178AD483B
:1028A000405C401EC0B2A849CA78AA49885400E0DA
:1028B0000020A549CA78A74988540120A04908707A
:1028C0009E4908705DE001209D49087003209B49E6
:1028D000087056E09C48C078401C9B49C870084668
:1028E000C0789D490978884203DD9B480078964965
:1028F000C8700120924908709049087041E09148E1
:102900000078072834D19048007870B18E4840781C
:1029100058B98D48C078062807DC01208A494870DC
:1029200087490870854908702BE087480078C0B156
:1029300085484078A8B1874D00208349487000241D
:1029400007E015F8011B04F128000AF06FFF601C76
:10295000C4B2082CF5DB012079490870774908706A
:102960000FE001207649087003207449087008E0E0
:102970007448007828B101207149087003206F491C
:10298000087000206F49087070BD6E4800780C28F0
:1029900010D103206D4908706D49087001206A4903
:1029A000887008460079C87001206549087063493D
:1029B00008703CE0634800780E2816D16248C07861
:1029C000401E6149C8700846C0786349097888424A
:1029D00002DC5D48C07810B900205B49C870012056
:1029E000574908705549087021E056480078032877
:1029F00014D15548C078401C5349C8700846C07867
:102A000055490978884203DD534800784E49C8701B
:102A100001204B4908704949087008E0494800788E
:102A200028B101204649087003204449087000205D
:102A3000444908707047434800780C2810D103209F
:102A4000424908704249087001203F498870084691
:102A50000079C87001203A490870384908703CE094
:102A6000384800780E2816D13748C078401E3649BD
:102A7000C8700846C07838490978884202DC324874
:102A8000C07810B900203049C87001202C49087066
:102A90002A49087021E02B480078032814D12A48DD
:102AA000C078401C2849C8700846C0782A4909786F
:102AB000884203DD284800782349C8700120204956
:102AC00008701E49087008E01E48007828B10120EF
:102AD0001B49087003201949087000201949087023
:102AE000704770B5174800780C2817D11648407801
:102AF00018B10020144948700AE0032013490870F7
:102B00001349087001201049887008460079C87080
:102B100001200B4908700949087047E1094800780D
:102B20000E287BD108484078002878D00648C07825
:102B3000002878D00448C07801280FE04900002020
:102B40004A000020981400208713002085130020DD
:102B500086130020131A0020801300200ED1FC4899
:102B6000407C1E2806DAFA48407C401CC0B2F84976
:102B7000487400E01E20F649487454E0F548C078D7
:102B800002280ED1F248807C632806DAF048807C67
:102B9000401CC0B2EE49887400E06320EC498874A0
:102BA00041E0EC48C07803281BD1EA48C178E848E6
:102BB0001030405C03280DDAE648C178E448103054
:102BC000405C401CC1B2E348C278E14810308154F7
:102BD000084600E00320DF49CA78DD4910318854F7
:102BE00021E0DC48C078042809D1D948007D6E284E
:102BF00001D1792100E06E21D548017513E0D54857
:102C0000C07805280FD1D248407D1E2808DAD04868
:102C1000407D401CC0B2CE49487502E020E008E08B
:102C20001E20CB4948750120CB490870CB4908705C
:102C300010E0C848C078401EC649C8700846C07831
:102C4000C7490978884202DCC248C07810B9002020
:102C5000C049C8700120C0490870C0490870A5E08B
:102C6000C0480078032854D1BA484078B8B3B9486E
:102C7000C07848B3B748C07802280BD0B548C078B0
:102C8000032807D0B348C078012803D0B148C078E2
:102C900005281AD1AF48C178AD481030405C0028F3
:102CA0000CDDAC48C178AA481030405C401EC0B270
:102CB000A849CA78A6491031885400E00020A549E7
:102CC000CA78A349103188541DE0A248C07804286E
:102CD00019D19F48007D6E2802D1792101E003E0DF
:102CE0006E219B4801750EE09A48C078401C9949B6
:102CF000C8700846C0789A490978884203DD984828
:102D000000789449C870012093490870934908706D
:102D10004CE09448007807283FD18E480078C0B135
:102D20008C484078A8B98B48C07803280ADC8948C9
:102D3000C07838B1012087494870874908708749B1
:102D4000087033E00120844908700320834908702B
:102D50002CE080480078C8B17E484078B0B17C4D06
:102D6000103500207B494870002407E015F8011B4E
:102D700004F110000AF05AFD601CC4B2082CF5DB07
:102D8000012075490870754908700FE001207249EB
:102D9000087003207149087008E07248007828B173
:102DA00001206D49087003206C49087000206D49AE
:102DB000087070BD70B56B4800780C2817D1654855
:102DC000407818B10020634948700AE00320664942
:102DD00008706649087001205E49887008460079CD
:102DE000C87001205C4908705C49087006E15D48C4
:102DF00000780E2854D15748407890B35548C07891
:102E000058B15448C078012807D05248C0780228E9
:102E100003D05048C07804280FD14E48C1784C48A0
:102E20000830405C6E2801D1792100E06E214948CC
:102E3000C2784748083081542CE04648C17844485D
:102E40000830405C03280DDA4248C1784048083019
:102E5000405C401CC0B23F49CA783D4908318854A3
:102E600001E006E003203B49CA783949083188541B
:102E700010E03848C078401E3649C8700846C0780F
:102E800037490978884202DC3248C07810B90020FE
:102E90003049C87001203049087030490870ADE0F1
:102EA00030480078032863D12A48407890B32948F5
:102EB000C07858B12748C078012807D02548C07885
:102EC000022803D02348C07804280FD12148C178B4
:102ED0001F480830405C6E2801D1792100E06E2146
:102EE0001C48C2781A48083081542AE01948C17831
:102EF00017480830405C01280DDD1648C178144899
:102F00000830405C401EC0B21249CA7810490831EE
:102F1000885401E006E001200E49CA780C490831C6
:102F200088540EE00B48C078401C0A49C870084617
:102F3000C0780B490978884203DD094800780549C3
:102F4000C8700120044908700449087056E00FE079
:102F5000EB190020871300204A00002049000020C0
:102F60008013002098140020851300208613002071
:102F7000F5480078072838D1F448007890B1F34834
:102F8000407878B9F148C07804280BD0EF48C07871
:102F9000052807D00120ED494870ED490870ED493A
:102FA00008702BE0E9480078C0B1E8484078A8B143
:102FB000E94D0020E5494870002407E015F8011BA1
:102FC00004F108000AF032FC601CC4B2082CF5DBE6
:102FD0000120DF490870DF4908700FE00120DC495B
:102FE00008700320DB49087008E0D748007828B152
:102FF0000120D74908700320D64908700020D24923
:10300000087070BD70B5D04800780C2823D1CF4827
:10301000407868B10020CD494870002405E0CF48D1
:10302000005DCF490855601CC4B2062CF7DB09E0EF
:103030000320CC490870CC4908700120C34988702E
:103040000020C8700120C2490870C24908700020E1
:10305000C6490870E0E1BC4800780E2879D1BB4829
:103060004078D8B1B948C078032817D1BA48083891
:10307000C078C82808DAB8480838C078401CC0B200
:10308000B5490839C87000E0C820B3490839C8708C
:103090000120AF490870AF490870BDE1AB484078E6
:1030A00030B3AA48C078052822D1B0480078AC498E
:1030B000085C092809DAAD480078085C401CC0B2F9
:1030C000AA490978A64A505400E00020A749097887
:1030D000A34A5054A54800781146095CA3480278D9
:1030E000401D815401209A4908709A49087093E163
:1030F00096484078A8B19548C07858B19348C078B0
:10310000012807D09148C078022803D08F48C078A2
:10311000042806D101208E49087003208D490870CB
:103120007AE18A48C078401E8849C8700846C0784D
:103130008F490978884202DC8448C07810B90020A1
:103140008249C8700120824908708249087063E191
:10315000FFE77D480078032877D17C484078D8B1D4
:103160007A48C078032817D17B480838C0780528EA
:1031700008DD79480838C078401EC0B27649083961
:10318000C87000E0052074490839C87001207049F2
:103190000870704908703FE16C48407830B36B4864
:1031A000C078052822D1714800786D49085C002854
:1031B00009DD6E480078085C401EC0B26B49097892
:1031C000674A505400E0092068490978644A50541D
:1031D000664800781146095C64480278401D8154B5
:1031E00001205B4908705B49087015E15748407839
:1031F000A8B15648C07858B15448C078012807D0C3
:103200005248C078022803D05048C078042806D11C
:1032100001204F49087003204E490870FCE04B48DC
:10322000C078401C4949C8700846C07850490978A0
:10323000884203DD4E4800784449C8700120444963
:10324000087044490870E7E0FFE73F480078072826
:1032500079D13E480078E0B13C484078C8B93B4855
:10326000C078022803D03948C078042805D101204D
:1032700037490870032037490870012033494870E6
:1032800000203A490870012031490870314908701E
:10329000C2E02E48007800287CD02C4840780028D6
:1032A00078D00020294948700846C078E0B901204C
:1032B00027490870274908702EA2122100200BF020
:1032C00099F809F0C3FF4EF660200AF08FFB4EF626
:1032D00060200AF08BFB012029490870294A12213D
:1032E00000200BF087F85BE01848C078012814D163
:1032F00025A212210BF07EF801201549087015490E
:10330000087009F0D1FF41F270700AF06FFB1D4A9E
:10331000122101200BF06EF842E00C48C07805281D
:1033200039D10F4D00240BE015F8011B04F1C80042
:103330000AF07CFA0A48005D08490855601CC4B2CE
:10334000062CF1DB2CE038E09814002087130020D5
:103350004A00002049000020F31900203613002005
:10336000301300208513002086130020E019002070
:1033700080130020D4CBD0D0D6D02E2E2E0000002B
:103380007C1300203C060008D4CBD0D0D6D02E2E03
:103390002E2E00000AE0FB48C17803200AF046FA0E
:1033A0000120F9490870F949087035E00120F64913
:1033B00008700320F54908702EE0F54800780F28C2
:1033C00021D1F4484078B8B1F248C078052813D12B
:1033D000F1480078052806DAEF480078401CC0B2B2
:1033E000ED49087000E00020EB4908700120E64933
:1033F0000870E64908700FE00120E34908700320D7
:10340000E249087008E0E248007828B10120DE496E
:1034100008700320DD4908700020DD49087070BD88
:10342000DB4800780C2817D1DA48007828B1022050
:10343000DA490870DA49087004E00120D7490870B9
:10344000D74908700020D3498870C8700120CE4940
:103450000870CE4908704DE0CD4800780E2816D18E
:10346000CC48C078401ECB49C8700846C078CD49CA
:103470000978884202DCC748C07810B90020C549E5
:10348000C8700120C0490870C049087032E0C048C7
:103490000078032814D1BF48C078401CBD49C870CB
:1034A0000846C078BF490978884203DDBD480078E6
:1034B000B849C8700120B4490870B449087019E0CF
:1034C000B3480078072815D10420B4490870B449DE
:1034D0000870B048C078AF4908710846C078401CF1
:1034E00088700020C8700120AF490870A649087094
:1034F000A64908700020A6490870704770B50220E0
:10350000A7490870A24800780C280ED10120A349D1
:103510000870A34908709F4988700020C870012076
:103520009949087099490870E6E0994800780E2892
:1035300022D1994800789D49085C092809DA964803
:103540000078085C401CC0B293490978974A5054EF
:1035500000E0002090490978944A50548E48007841
:103560001146095C8C480278401D8154012086492F
:10357000087086490870BFE085480078032822D18A
:10358000854800788949085C002809DD8248007870
:10359000085C401EC0B280490978844A505400E05B
:1035A00009207D490978814A50547B4800781146AA
:1035B000095C79480278401D8154012072490870E5
:1035C0007249087098E07248007807287DD17748E2
:1035D000007877490978884230D174484078744936
:1035E000497888422AD1714880787149897888421F
:1035F00024D16E48C0786E49C97888421ED16B4884
:1036000000796B490979884218D16848407968493E
:103610004979884212D101205E49087003205F4930
:1036200008705F49087001205A4988700020C870EE
:10363000012055490870554908705DE05B480078E5
:1036400006283BD159484078B0BB584880780328B9
:1036500034D15648C07878BB5448007909282DD118
:103660005248407940BB002411E0514D02204F499F
:1036700008552946085502214748401D015515F8AF
:10368000011B04F1C8000AF0D1F8601CC4B2062C7A
:10369000EBDB01203F490870032040490870404996
:1036A000087001203B4988700020C870012036490D
:1036B0000870364908701FE000E006E0012032493A
:1036C000087003203149087016E0314800780F284F
:1036D00012D131480078052806DA2F480078401CBE
:1036E000C0B22D49087000E000202B49087001206D
:1036F000254908702549087070BD254909780C29AD
:103700000FD10021254A1170254A1170FF21214A4D
:1037100091700021D17001211B4A11701B4A117058
:1037200084E01B4909780E2914D11A49C978491E29
:10373000184AD1701146C9781A4A1278914203DDAD
:1037400018490978134AD17001210F4A11700F4AA4
:1037500011706BE00E49097803292BD10D49C97806
:10376000491C0C4AD1701146C9780E4A1278914210
:1037700002DD0021074AD1700121034A1170034A7A
:10378000117053E0EB1900204A000020490000208E
:103790009814002087130020E019002085130020D2
:1037A00086130020801300207C130020301300209B
:1037B00036130020FE49097807292ED1FD49C97822
:1037C000012917D1FB4A11700221FB4A1170FB4AF3
:1037D0001170002003E00021F94A1154401C062812
:1037E000F9DB002003E00022F6490A54401C0628B9
:1037F000F9DB07E00021EF4A11700321EE4A117056
:10380000EE4A11700121EB4A91700021D170012123
:10381000ED4A1170ED4A117008E0E549097829B1C7
:103820000121E94A11700321E84A11707047E84804
:10383000007820F00400E64908700020E54908708F
:10384000E5490870E5490870E5490870E5490870E0
:10385000E5480078E5490978884204D00020E2492B
:103860000870E24908700120E14908600020E14940
:10387000C1F8A801704710B5CD4800780C282BD1AD
:103880000120DD490870DD480078F0B9DC48007897
:10389000D8B9CF480078C0F38000B0B90520C64938
:1038A0000870C64908700020C2498870C87001209D
:1038B000D44908700020C349491FC8700120C2497B
:1038C0000870C249087001F0FCBD0120BE490870B3
:1038D0000320BE490870F6E7B54800780E2842D1AB
:1038E000C9480078012804D1C8480088401CC7494D
:1038F0000880C24800780028E5D1C1480078002837
:10390000E1D1B3480078C0F380000028DBD1C04883
:103910000078C0F340100028D5D1BE4800780528B3
:1039200005DABC480078401CBA49087002E0012062
:10393000B849087000240EE0B6490978491E4FF4D2
:10394000807202EB0121214488B209F045FFB2499F
:103950000855601CC4B2C82CEEDB01209A490870DF
:103960009A490870AFE792480078032832D1A648F8
:103970000078012804D1A5480088401EA34908808A
:103980009E48007800289ED19D48007800289AD152
:103990008F480078C0F38000002894D19C480078BC
:1039A000C0F3401000288ED1062083490870834957
:1039B000087000207F498870C8709849087098493D
:1039C00008708049491FC87001207F4908707F49ED
:1039D000087078E776480078072822D18748007871
:1039E0000028BFD1864800780028BBD178480078ED
:1039F000C0F380000028B5D185480078C0F340109E
:103A00000028AFD101206C4908706C4908706949E1
:103A100088700020C87001206B4908706B490870DD
:103A200051E763480078102850D17448007878B97D
:103A30007348007860B966480078C0F3800038B9F0
:103A400073480078C0F3401010B97648007830B958
:103A500001205D49087003205C49087033E70120AC
:103A600066490870704908707048007820F00100BD
:103A7000401C6E4908705648007820F08000803065
:103A80005349087000205A49086001205949C1F87B
:103A9000A8016748007840B16648007820F001002E
:103AA000644908700020644908706448007820F078
:103AB00040006249087000206149087001204249B5
:103AC00008704249087050490870FCE63848007890
:103AD0000B286BD14948007890B94948007878B9EB
:103AE0003B480078C0F3800050B94E48007838B1A8
:103AF0005448007820B101203349087033490870D8
:103B00003E48007838B93E48007820B930480078FF
:103B1000C0F3800038B14348007820B13C480078B9
:103B2000C0F3401030B10120274908700320274915
:103B30000870C8E6002032490870304908703F48D4
:103B4000007820F001003D4908702148007820F0FD
:103B500004001F49087000201E4908701E490870A3
:103B60001E4908701E4908701E49087036490870C1
:103B70000120364908603648007820F001003449B9
:103B800008703448007820F0080032490870204856
:103B9000007820F080001E4908702D48007820F041
:103BA00002002B49087000200F4955E083E1000016
:103BB000981400208713002085130020861300200E
:103BC00030130020E51900204A00002049000020A1
:103BD000570000204E0000204F0000205000002021
:103BE00051000020520000200A1800200B1800206D
:103BF0008481214200802142A01300200100002086
:103C0000000000207C1300207D130020DE14002023
:103C10005B0000209D130020441800207E1300202C
:103C20007F130020EE140020141800205C000020F8
:103C3000EF1400205E0000203E0000205D00002008
:103C4000220000202400002020000020B001224299
:103C5000580000205A0000200870FE490870FE49F4
:103C60000870FE490870FE490870FE480078C0F3ED
:103C7000001058B11420FC490870FC490870FC4839
:103C8000007820F00200801CF9490870F54800789F
:103C900020F01000F3490870F548007820F0040087
:103CA000F3490870EF48007820F00800ED490870EB
:103CB000EF48007820F00800ED4908700020E8493E
:103CC0000870EC490870EC48007820F00400EA49DC
:103CD00008700846007820F0080008700020E749C6
:103CE00008700120E64908600020E6490870E248B3
:103CF000007820F01000E04908700020E2490870C8
:103D00000120E249C1F8B0010020E1490870DA4819
:103D1000007820F04000D84908700846007820F06C
:103D2000200008700020DB4908700120D749C1F845
:103D3000AC01CF48007820F01000CD49087008464B
:103D4000007820F0200008700846007820F040003D
:103D500008700120D04908600020D0490870D0497F
:103D60000870D0490870D048007820F02000CE4973
:103D700008700020CD490870CD4908700120CD4958
:103D8000C1F89801C848007820F04000C649087082
:103D9000B748007820F08000B54908700020C64977
:103DA0000870C148007820F08000BF490870C348FF
:103DB000007820F00800C14908700120BD49C1F811
:103DC0009C01BF4800785A2818D1BE480078A8B98D
:103DD000BD48007890B9BD4890F84800B9490870CE
:103DE000BA4890F84A00401DB7490870B3480078B7
:103DF00020F040004030B14908701BE0B048007826
:103E0000472817D1B2480078A0B9B248007888B9DD
:103E1000AE4890F84900AE490870AC4890F84B00A5
:103E2000401DAC490870A548007820F040004030A3
:103E3000A2490870A2480078A0B9A248007888B9C1
:103E4000A148007870B9A248007858B9A148007814
:103E500040B98548007828B98448007810B9002016
:103E60009D4908700020964908709448007820F019
:103E70008000924908700846007820F0040008701D
:103E800001207F491039086000209449C1F8A80139
:103E900093490870012093490870934908700020E5
:103EA00092490870894890F8710091490870002083
:103EB0009049C87007E5904800780A286AD18F4871
:103EC0000078002867D078480078C009002862D1BF
:103ED00075480078C0F380100028F8D16148007858
:103EE000C0F380000028F2D185480078C0F340106C
:103EF0000028ECD1834800780028E3D05C480078A3
:103F000000F001000028E2D17F480078C0F34000B3
:103F100000283DD15848007800F00100C8BB514846
:103F20000078C0F3C000A0BB5348007820F0010027
:103F3000401C514908707548007820F0080073490A
:103F400008706F48007820F080006D4908704A487A
:103F5000007820F00200801C4749087001206C495D
:103F600008706948007820F00400674908703D48EF
:103F7000007820F008003B4908703D48007820F0A8
:103F800004003B4908700846007820F008000870DB
:103F9000DDE001E09CE1E0E03748007800F001005E
:103FA000C8B330480078C0F3C000A0BB32480078E6
:103FB00020F00100304908705448007820F00800D3
:103FC000524908704E48007820F080004C49087033
:103FD0002948007820F0020027490870214800781D
:103FE00020F0080008301F4908702148007820F0B0
:103FF0000400001D1E4908700846007820F00800E3
:1040000008700120424908703F48007820F0040001
:104010003D4908709BE0FFE71748007820F0010059
:10402000154908703948007820F0080037490870B1
:104030003348007820F08000314908700E4800783D
:1040400020F002000C490870002032490870014934
:10405000087061E00B1800201500002016000020F9
:10406000A513002057000020290000202A0000206E
:104070005D0000200F18002058000020A61300202B
:104080009481214210180020A11300200000214239
:1040900011180020A2130020A00121420E180020B8
:1040A0000D1800200C180020590000201A000020D4
:1040B0001218002000002242A31300205C00002000
:1040C0001B000020380000203A000020EB190020DF
:1040D000390000203B0000201418002000802142FD
:1040E000A41300204A000020490000207D13002076
:1040F00010000020E019002098140020010000208A
:104100005B000020EE1400205E0000205A0000201A
:104110003C0000200A180020FD490870FD49087085
:10412000FD48007820F00800FB490870FB48007843
:1041300020F00400F94908700846007820F00800D3
:104140000870F548007820F01000F349087001204D
:10415000F3490870F3490870B6E0F3480078002886
:104160007ED1F2480078C009002879D1EF48007864
:10417000C0F38010002873D1E7480078C0F38000B6
:1041800000286DD1EA480078C0F34010002867D1BC
:10419000E8480078002863D0DF480078C0F3C0000A
:1041A00000285DD1E448007888BB0120E24908700E
:1041B0000020E2490870E2490870E24908600120E5
:1041C000E149C1F8A801D448007820F0800080308F
:1041D000D1490870DD4890F87100DD490870012070
:1041E000DC490870DC48007840B1DC48007820F0F9
:1041F0000100DA4908700020D9490870C7480078E2
:1042000020F04000C54908700020D6490870D64803
:10421000007800F0010020BBD348007820F00100B6
:10422000401CD1490870D148007820F00800CF49DF
:104230000870BF48007820F08000BD490870CA4867
:10424000007820F00200801CC74908700120C8498E
:104250000870C248007820F00400C049087027E0C8
:104260002CE0C148007820F00100BF490870BF4829
:10427000007820F00800BD490870AD48007820F0B3
:104280008000AB490870B848007820F00200B649B9
:104290000870A148007820F008009F4908700020AD
:1042A000B4490870B4490870994908709949087070
:1042B00001209B4908709B49087005E0012098493E
:1042C00008700320974908700020AC49C87030E49A
:1042D000AB48007804287DD193480078D0B3934848
:1042E0000078C009B0BB91480078C0F3801088BB4B
:1042F00089480078C0F3800060BB8D480078C0F327
:10430000401038BB8B48007820B38448007800F018
:104310000100F8B991480078C0F34000A8BB994863
:1043200000888B490978884215DA8F4800786FEA4F
:1043300090008D49097860F382018B480170007804
:10434000C0F3800008B38848007820F00800864950
:1043500008701AE01FE0844800786FEA90008249F4
:10436000097860F38201804801700078C0F3800012
:1043700028B17D48007820F008007B4908700120B2
:104380006749087003206749087001206449087074
:104390006449087097E064480078E8BB6348007897
:1043A000C009C8BB61480078C0F38010A0BB5A4860
:1043B0000078C0F3800078BB5D480078C0F34010FF
:1043C00050BB5C48007838B353480078C0F3C00055
:1043D00010BB00E07BE05848007898BB01205649AC
:1043E0000870002055490870554908705549086003
:1043F00001205549C1F8A8014748007820F0800005
:10440000803045490870514890F871005049087053
:1044100001205049087000E04FE04F48007840B15B
:104420004E48007820F001004C49087000204C49AB
:1044300008703A48007820F04000384908700020A1
:10444000484908704F48008841490978884214DA81
:10445000454800786FEA90004349097860F382018B
:10446000414801700078C0F3800000B33E480078F6
:1044700020F008003C49087019E03B4800786FEADA
:1044800090003949097860F382013748017000785B
:10449000C0F3800028B13448007820F00800324989
:1044A000087001201E49087003201E490870012071
:1044B0001B4908701B49087005E001201849087065
:1044C00003201849087000202C49C870F2E42C48D9
:1044D000007808287BD114480078C0B113480078D0
:1044E000C009A0B911480078C0F3801078B90A4813
:1044F0000078C0F3800050B90D480078C0F3401038
:1045000028B90C48007810B1044800783CE07DE000
:104510001500002016000020570000205D0000203C
:104520004A0000204900002001000020590000201E
:104530005B000020EE140020000000201800002086
:10454000190000208481214200802142EB190020C3
:104550001000002014180020EF1400205E0000203E
:104560003E00002022000020580000205A000020B9
:104570003C0000200A1800200B180020E019002041
:1045800098140020DE14002000F00100F0BBFE486B
:104590000078C0F34000A8BBFC480088FC490978BB
:1045A000884215DAFB4800786FEA1010F94909785B
:1045B00060F30411F74801700078C0F3001008B3ED
:1045C000F448007820F02000F24908701AE0BBE0BF
:1045D000F04800786FEA1010EE49097860F3041192
:1045E000EC4801700078C0F3001028B1E948007869
:1045F00020F02000E74908700120E74908700320F7
:10460000E64908700120E449087000E002E0E3494F
:10461000087095E0E2480078F0BBE2480078C009F5
:10462000D0BBE0480078C0F38010A8BBDE4800781B
:10463000C0F3800080BBDD480078C0F3401058BB59
:10464000DB48007840B3D8480078C0F3C00018BBFE
:10465000D848007898BB0120D64908700020D64978
:104660000870D6490870D64908600120D549C1F8BC
:10467000A801CD48007820F080008030CA49087039
:10468000D14890F87100C24908700120CF490870E4
:10469000CF48007850B100E04CE0BB48007820F0F3
:1046A0000100B94908700020CA490870CA4800785A
:1046B00020F04000C84908700020C8490870B3487D
:1046C0000088B3490978884214DAB24800786FEA62
:1046D0001010B049097860F30411AE4801700078F9
:1046E000C0F3001000B3AB48007820F02000A949C7
:1046F000087019E0A74800786FEA1010A5490978FA
:1047000060F30411A34801700078C0F3001028B1D1
:10471000A048007820F020009E49087001209E49A2
:10472000087003209D49087001209B4908709B492F
:10473000087005E001209849087003209749087027
:104740000020A749C870C2E5A64800780D2876D198
:104750009348007878B393480078C00958BB9148D3
:104760000078C0F3801030BB8F480078C0F3800021
:1047700008BB8E480078C0F34010E0B98C48007840
:10478000C8B19548007800F00100A0B97E480078D3
:10479000C0F3400048B97F4800786FEA90107D4927
:1047A000097860F386117B48017001207A4908700E
:1047B0007A49087067E0FFE779480078F0BB7948EC
:1047C0000078C009D0BB77480078C0F38010A8BB40
:1047D00075480078C0F3800080BB74480078C0F34F
:1047E000401058BB7248007840B36F480078C0F35F
:1047F000C00018BB6F48007878BB01206D49087075
:1048000000206D4908706D4908706D4908600120ED
:104810006C49C1F8A8016448007820F0800080301D
:10482000614908700120694908706948007858B1E9
:104830005548007820F00100534901E01DE026E0D2
:1048400008700020634908706348007820F0400039
:10485000614908700020614908704E4800786FEA8D
:1048600090104C49097860F386114A480170012084
:10487000494908704949087005E001204649087017
:1048800003204649087000205549C8701FE5554867
:104890000078012876D143480078C00900284AD121
:1048A00040480078C0F38010002844D13E4800788A
:1048B000C0F3800000283ED13C480078C0F340108F
:1048C000C8BB3B480078B0B34348007800F0010013
:1048D00088BB35480078C0F3C00060BB3048007822
:1048E00050B329480078C0F3400018BB3E48007818
:1048F00000B33948007820F01000374908700846A6
:10490000007820F0200008700846007820F0400071
:1049100008702448007820F0200022490870002008
:10492000324908702D49087001201B490870032086
:104930001A49087086E0C1E0FFE71E48007810BB06
:1049400001201C49087000201B4908701B49087091
:104950001B49086001201B49C1F8A80112480078D2
:1049600020F080008030104908700120174908703D
:1049700017480078E0B30448007820F001000249AD
:10498000087036E0A4E05DE05E000020DE14002048
:1049900010000020580000204A000020490000209C
:1049A0000100002059000020570000205B0000207B
:1049B000EE14002000000020180000201900002044
:1049C0008481214200802142EB190020141800202C
:1049D000EF1400203E0000205D0000202200002097
:1049E000E019002098140020121800201A0000205E
:1049F00002E00020FE490870FE480078C0F3C000C5
:104A000000B3FD48007820F01000FB49087008460C
:104A1000007820F0200008700846007820F0400060
:104A20000870F648007820F02000F4490870002053
:104A3000F3490870F34908700120F3490870032016
:104A4000F2490870EC480078C0F3401020B1EA4801
:104A50000078C0F38010C0B9E74800786FEA101002
:104A6000E549097860F30411E34801700078C0F368
:104A7000001030B1E64890F83100401CE149087060
:104A800016E00020DF49087012E0DB48007820F0D3
:104A90001000D94908700846007820F020000870FE
:104AA0000846007820F0400008700020D5490870C2
:104AB0000120D5490870D549087005E00120D24988
:104AC00008700320D14908700020D249C870FDE465
:104AD000D148007805287DD1D0480078E8B3C74890
:104AE0000078C009C8BBC3480078C0F38000A0BBF1
:104AF000CB480078C0F3401078BBCA48007860B358
:104B0000BD48007800F0010038BBC7480078C0F30A
:104B1000400048B9B84800786FEAD010B649097823
:104B200060F3C711B4480170B3480078C00990B36E
:104B3000B248007820F040004030B0490870BB48CF
:104B4000007820F00400B94908700846007820F089
:104B5000100008700846007800E029E020F04000CE
:104B60000870A648007820F02000A4490870A248E8
:104B7000007820F01000A04908700846007820F066
:104B8000200008700846007820F0400008700020DF
:104B90009C49087006E0FFE79848007820F0400044
:104BA00096490870012098490870984908707CE17E
:104BB0009A480078002874D190480078C0090028ED
:104BC000F9D18C480078C0F38000002869D194485E
:104BD000007800E06DE1C0F34010002861D19148F9
:104BE000007800285DD09248007818BB01209049D9
:104BF000087000208F4908708F4908708F4908603D
:104C000001208F49C1F8A8017A48007820F080007F
:104C100080307849087001208A4908708A480078F5
:104C200040B18148007820F001007F4908700020E1
:104C30006F49087071480078C0F3801090B38348C2
:104C4000007878BB8248007860BB8248007848BB17
:104C50008148007830BB6948007820F040006749FF
:104C6000087000207D4908706348007820F08000BB
:104C7000614908705F48007820F008005D490870BD
:104C80000846007820F0100008705B48007820F09B
:104C90000400594908700846007820F008000870A0
:104CA000F7E0FCE0FFE7534800786FEAD000514995
:104CB000097860F3C3014F4801700078C0F3C00069
:104CC000F0B30020654908705848007820F00400CF
:104CD000564908700846007820F010000870084611
:104CE000007820F0400008704448007820F0200050
:104CF000424908704048007820F010003E49087092
:104D00000846007820F0200008700846007820F05F
:104D10004000087000203B4908703648007820F0B9
:104D20001000344908703448007820F004003249FB
:104D300008700846007820F0080008703A4800E043
:104D400033E0007820F0040037490870012044491E
:104D500008702F4890F842003E4908702C4890F89F
:104D600043003D4908703148007820F001002F4988
:104D700008703C48007820F008003A49087028483C
:104D8000007820F08000264908702848007820F03C
:104D900002002649087000202C4908702C49087030
:104DA000314908703149087073E01448007820F0E8
:104DB0004000124908701048007820F004000E49A5
:104DC00008700846007820F008000870094800784C
:104DD000C0F3001050B1142025490870254908700F
:104DE0000548007820F00200801C45E046E0000005
:104DF0003E000020570000205D00002059000020E8
:104E00001A000020220000204A0000204900002053
:104E1000EB190020E0190020981400200100002068
:104E20005B000020EE1400205E00002058000020EF
:104E30000000002018000020190000208481214279
:104E40000080214214180020EF1400200A180020CE
:104E50000B18002027000020280000201218002036
:104E60003C0000205A000020150000201600002001
:104E7000290000202A000020FE490870FE48007822
:104E800020F01000FC4908700020FC490870FC4923
:104E900008700120FB490870FB49087005E00120FB
:104EA000F84908700320F84908700020F749C870D5
:104EB00007E3F748007809287ED1F64800780028F3
:104EC0007BD0ED480078C0F38000002875D1F2480F
:104ED0000078C0F3401000286FD1F0480078002817
:104EE0006BD0E448007800F00100002865D1EC4860
:104EF0000078C0F34000E8BBDF480078C0F3001042
:104F000058B1DC48007820F00200801CD9490870B4
:104F10000020DA490870DA490870D748007820F094
:104F20001000D5490870D348007820F00400D1491A
:104F30000870D148007820F00800CF490870CD48AB
:104F4000007820F00800CB490870D6480078A8BB4C
:104F50000846007820F0800080300870D248007841
:104F600020F080008030D04908705A20CD49087068
:104F7000CE4800E088E0007820F08000CB4908703F
:104F8000CB4890F84000CB490870C94890F84500DC
:104F9000C0EB00108000C8490860C54890F8440084
:104FA0001E30C64908700120C5490870BC48007809
:104FB00020F00400BA4902E07AE2C1E001E00870A2
:104FC00062E0B84800785A2828D1AA48007820F032
:104FD00080008030A7490870B348007820F0800036
:104FE0008030B14908704720AE490870AF4800785A
:104FF00020F00400AD490870AD4890F84600C0EBC1
:1050000000108000AF4908600120AD490870A44835
:10501000007820F00400A249087035E0002097498C
:10502000087097490870A8490860A8490860A8490D
:1050300008609F4890F84900A64908709C4890F87D
:105040004B00401DA44908709848007820F04000AB
:105050004030964908700846007820F080000870BB
:105060000846007820F0040008708248007820F09C
:105070008000804908708C48007820F080008A49C0
:10508000087000208749087087480078C009E0B39D
:105090009248007820F0010090490870904800780C
:1050A00020F008008E4908707B48007820F08000CE
:1050B000794908708948007820F002008749087013
:1050C0000846007820F0040008700846007820F0B8
:1050D000100008700846007820F04000087065480D
:1050E000007820F01000634908700846007820F02E
:1050F000200008700846007820F04000087000206A
:10510000784908706848007800E013E020F020003B
:10511000654908700020744908706348007820F0E1
:105120004000614908705348007820F080008030CA
:105130005049087001205349087053490870B3E181
:1051400054480078002878D14B480078C0F380009C
:105150000028F8D150480078C0F340100028F2D160
:105160004E480078002868D06048007818BB0120BD
:105170005E49087000205E4908705E4908705E490B
:10518000086001205D49C1F8A8013B48007820F083
:10519000800080303849087001205949087059480A
:1051A000007840B13E48007820F001003C4908708A
:1051B0000020554908703B480078E8BB2D4800782E
:1051C00020F0800080302B4908703748007820F0AC
:1051D00080008030344908705A20324908703348C2
:1051E000007820F0800031490870314890F8400084
:1051F000304908702E4890F84500C0EB0010800040
:105200002D4908602A4890F844001E302B49087048
:1052100001202B4908702248007820F00400204922
:10522000087015480078C0F3001008B311480078E2
:1052300020F00200801C01E008E02FE10D49087019
:1052400000200E4908700E490870B2E01548007839
:105250005A2878D10748007820F08000803005492E
:1052600008701148007820F0800080300E494DE031
:105270009FE000005D000020570000200A18002079
:105280000B1800204A00002049000020E0190020EF
:1052900098140020010000205B000020EE14002084
:1052A0005E0000201B000020590000205C00002050
:1052B000EB1900202B000020300000202C000020E3
:1052C0003C000020340000200400002008000020E2
:1052D0000C000020390000203B0000205800002076
:1052E0005A000020220000201A00002000000020A8
:1052F00018000020190000208481214200802142F2
:1053000014180020EF1400203E00002008704720F1
:10531000F9490870F948007820F00400F74908704E
:10532000F74890F84600C0EB00108000F54908608F
:105330000120F5490870F548007820F00400F34991
:10534000087036E0FFE70020F1490870F149087065
:10535000F1490860F1490860F1490860E84890F8AF
:105360004900F0490870E64890F84B00401DEE49AE
:105370000870E248007820F040004030DF490870B3
:105380000846007820F0800008700846007820F079
:1053900004000870E548007820F08000E3490870B8
:1053A000E348007820F08000E14908700020D249ED
:1053B0000870DF480078C009F0B3DE48007820F0BC
:1053C0000100DC490870DC48007820F00800DA4968
:1053D0000870DA48007820F08000D8490870D54875
:1053E000007820F00200D34908700846007820F0C9
:1053F000040008700846007820F010000870084685
:10540000007820F040000870C848007820F01000B4
:10541000C64908700846007820F020000870084649
:10542000007820F0400008700020C5490870C0488E
:10543000007820F0200000E02AE0BD49087000203C
:10544000C0490870BA48007820F04000B849087098
:10545000B648007820F080008030B4490870012000
:10546000B9490870B948007820F00800B7490870B9
:105470000846007820F010000870AC48007820F052
:105480000400AA4908700846007820F00800087057
:105490000120AF490870AF49087005E00120AC4910
:1054A00008700320AB4908700020AB49C87008E0C1
:1054B000AA4800780F2804D10120A9490870FEF7F6
:1054C000B6F910BD10B5A74800780B2871D2DFE8F7
:1054D00000F0060C12181E61677A80868C0000208E
:1054E000A1490870FEF7C7F986E001209E490870BF
:1054F000FEF703F980E002209B490870FDF7FEFFEC
:105500007AE0032098490870FDF78AFF74E00420D0
:105510009549087095488078102836D2DFE800F069
:1055200035080B0E1114171A1D202326292C2F3293
:10553000FDF768FD2CE0FDF73DFC29E0FDF7D1FA11
:1055400026E0FDF778FA23E0FDF71FFA20E0FDF7EB
:105550000EF91DE0FDF70FF81AE0FCF7F6FE17E074
:10556000FCF737FD14E0FCF7E2FB11E0FCF7D8FA9A
:105570000EE0FCF7F1F90BE0FCF787F808E0FBF729
:1055800060FE05E0FBF76BFD02E0FBF746FD00BFA8
:1055900000BF31E0052074490870FBF7D9FC2BE00F
:1055A0000620714908707148807818B1012807D128
:1055B00003E020E0FAF72FFF03E0FAF7CDFE00E06A
:1055C00000BF00BF18E0072067490870FAF7ACFE7B
:1055D00012E0082064490870FAF792FE0CE00920F6
:1055E00061490870FAF778FE06E00A205E49087003
:1055F000FAF710FE00E000BF00BF00205749087016
:1056000010BD10B55A48007810B1002058490870F4
:105610005148C07870B9574A00210846FAF7E3FDAF
:10562000554A0021084608F0E5FE4B48C078401C6A
:105630004949C87010BD70B5034600200DE00A2529
:10564000B1FBF5F605FB161404F13005ECB21C5461
:105650000A25B1FBF5F1451CE8B29042EFDB70BDC5
:105660002DE9F04105468846164632464146284611
:10567000FFF7E1FF00240BE02F5DA819401E001B7F
:1056800000782855A819401E001B0770601CC4B282
:1056900006EBD671B4EB610FEEDBBDE8F0811CB513
:1056A0003348007810B10020314908703348007841
:1056B00028B133A20021084608F09CFE80E0324861
:1056C0000078012806D002280AD003280ED004282A
:1056D0006FD168E02DA20021084608F08BFE6EE035
:1056E0002CA20021084608F085FE68E02BA20021CC
:1056F000084608F07FFE62E01B0000205C000020EE
:10570000EB190020340000203C0000205E00002047
:105710000A1800200B1800200400002008000020B8
:105720000C000020390000203B0000205D0000201C
:1057300059000020580000205A0000205B00002083
:10574000220000201A00002012180020570000201C
:105750004A00002049000020E01900209814002091
:105760009813002085130020861300208713002043
:105770007C1300205002002028210020000000207F
:10578000CAD6B6AF000000009D130020B1EAD7BC16
:1057900000000000B4B2B5A500000000CCA8B2BC67
:1057A0000000000005E0F9A20021084608F022FEF2
:1057B00005E0F8A20021084608F01CFE00BF00BF6B
:1057C000F648C07870B9F64A00210846FAF70BFD92
:1057D000F44A0021084608F00DFEF048C078401C4D
:1057E000EE49C870F0480068012808D1EFA21C21DA
:1057F000002008F0FFFD0020ED49086007E0EDA261
:105800001C21002008F0F6FD0120E9490860EA4863
:105810000078002866D1E94800780028FAD1E8A28B
:105820000321084608F0E6FDE7A20A21032008F05C
:10583000E1FDE7A21021032008F0DCFDE6A217211C
:10584000032008F0D7FDE648007828B9E5A21C211E
:10585000012008F0CFFD04E0E3A21C21012008F0A4
:10586000C9FDE2480078E0B3D4480078C8BB002006
:10587000DE490870DE48007864280CDDDC480078DA
:105880006438DB49087008460078642803DD084660
:105890000078643808700322D54801786846FFF71D
:1058A000DFFE9DF80000302802D120208DF8000096
:1058B0009DF80100302802D120208DF8010003233B
:1058C0006A460821022008F094FE0422C948018893
:1058D0006846FFF7C5FE9DF80000302805D120205E
:1058E00001E008E0BCE08DF8000004236A461721BF
:1058F000022008F07EFEB0480078B0B1AF480078D2
:1059000098B90222BC4801786846FFF7A9FE9DF8C5
:105910000000302802D120208DF8000002236A46C2
:105920001721012008F065FE13E0B44890F87110CB
:1059300002226846FFF794FE9DF80000302802D14D
:1059400020208DF8000002236A461721012008F06C
:1059500050FE9948007848B19848007830B9032241
:10596000A74801786846FFF77BFE0BE0A34890F854
:10597000581003226846FFF773FEA04890F85800BD
:105980009F4908709DF80000302802D120208DF832
:1059900000009DF80100302802D120208DF8010080
:1059A00003236A460821012008F023FE9548007869
:1059B00020F00200801C934908708948007828B9BB
:1059C00091A20C21002008F015FD49E091480078D3
:1059D00070B99148007858B99048007840B990481B
:1059E000007828B98F48007810B98F48007850B1F6
:1059F00084480078C0F3800028B98CA20C210020D4
:105A000008F0F8FC2CE083480078C8B98248007898
:105A1000B0B98248007898B98148007880B9814847
:105A2000007868B98048007850B976480078C0F3AB
:105A3000800028B980A20C21002008F0DBFC0FE0D8
:105A400070480078C0F3800028B17EA20C210020AD
:105A500008F0D0FC04E07EA20C21002008F0CAFC73
:105A60001CBD7047704710B57C48007810B100200D
:105A70007A4908704948C07870B9794A00210846C7
:105A8000FAF7B1FB474A0021084608F0B3FC434847
:105A9000C078401C4149C87010BD10B56F480078EF
:105AA00010B100206D4908703C48C07870B96D4A4B
:105AB00000210846FAF797FB3A4A0021084608F009
:105AC00099FC3648C078401C3449C87001206649AA
:105AD000087010BD70B504460D46012C1BD163A2A1
